:100000000C9446000C9465000C9465000C946500FB
:100010000C9465000C9465000C9465000C946500CC
:100020000C9465000C9465000C9465000C946500BC
:100030000C9465000C9465000C9465000C946500AC
:100040000C9465000C9465000C9465000C9465009C
:100050000C9465000C9465000C9465000C9465008C
:100060000C9465000C9465000C9465000C9465007C
:100070000C9465000C9465000C9465000C9465006C
:100080000C9465000C9465000C94650011241FBE4F
:10009000CFEFD0E4DEBFCDBF11E0A0E0B1E0E8E2F9
:1000A000F2E000E00BBF02C007900D92AE30B10746
:1000B000D9F721E0AEE0B1E001C01D92A031B20756
:1000C000E1F70E940A010C9412010C940000CF93F6
:1000D000C82F8A3051F09091C00095FFFCCFC0939B
:1000E000C60090E080E0CF9108958DE00E94670007
:1000F000F2CF80B1382F309528B180910E019091C8
:100100000F018330910509F450C060F581309105ED
:10011000A9F18230910551F4313009F43FC082E0F9
:1001200090E090930F0180930E0109C0892B09F094
:100130005CC081E090E090930F0180930E0180916C
:100140000E0190910F018330910509F45DC008F410
:1001500053C08430910509F45BC0059709F052C083
:1001600020E050C08430910581F10597F1F581E0E0
:1001700090E090930F0180930E01E1CF313039F080
:1001800081E090E090930F0180930E01D8CF82E040
:1001900090E090930F0180930E01D1CF83E090E027
:1001A00090930F0180930E01CACF313039F083E074
:1001B00090E090930F0180930E01C1CF84E090E016
:1001C00090930F0180930E01BACF313039F083E064
:1001D00090E090930F0180930E01B1CF81E090E009
:1001E00090930F0180930E01AACF81E090E090934D
:1001F0000F0180930E01A3CF8130910539F0029752
:1002000009F42CE028B9089523E0FCCF2FE3FACFBE
:1002100020E3F8CF11B88FEF82B987B918B80E94E0
:080220007900FDCFF894FFCF37
:0E02280000000002000000006700000000005F
:00000001FF
