:100000000C9446000C9465000C9465000C946500FB
:100010000C9465000C9465000C9465000C946500CC
:100020000C9465000C9465000C9465000C946500BC
:100030000C9465000C94A4000C9465000C9465006D
:100040000C9465000C9465000C9465000C9465009C
:100050000C9465000C9465000C9465000C9465008C
:100060000C9465000C9465000C9465000C9465007C
:100070000C9465000C9465000C9465000C9465006C
:100080000C9465000C9465000C94650011241FBE4F
:10009000CFEFD0E4DEBFCDBF11E0A0E0B1E0E6E4F9
:1000A000F3E000E00BBF02C007900D92A231B10750
:1000B000D9F721E0A2E1B1E001C01D92AD31B20754
:1000C000E1F70E9480010C94A1010C940000CF93F1
:1000D000C82F8A3051F09091C00095FFFCCFC0939B
:1000E000C60090E080E0CF9108958DE00E94670007
:1000F000F2CF8BE0809381008DE790E090938900B0
:100100008093880082E080936F00109285001092A7
:1001100084008091000190910101A0910201B091B1
:1001200003018093120190931301A0931401B093E3
:1001300015018FB780688FBF0895109281000895D0
:1001400081E08093160108951F920F920FB60F92CF
:1001500011240BB60F922F933F934F935F936F939E
:100160007F938F939F93AF93BF93EF93FF93809170
:10017000120190911301A0911401B0911501019702
:10018000A109B1098093120190931301A093140166
:10019000B0931501892B8A2B8B2B99F0FF91EF914E
:1001A000BF91AF919F918F917F916F915F914F918F
:1001B0003F912F910F900BBE0F900FBE0F901F908D
:1001C00018950E94A0008091000190910101A091DA
:1001D0000201B09103018093120190931301A09347
:1001E0001401B0931501DACF6093000170930101FF
:1001F00080930201909303016093120170931301A5
:1002000080931401909315010895809119019091A4
:100210001A018230910541F158F4009791F001974D
:10022000B1F482E090E090931A01809319010FC01D
:10023000039769F481E090E090931A01809319018B
:1002400006C081E090E090931A018093190180919B
:10025000190190911A018230910589F0833091053E
:1002600091F0019741F0089583E090E090931A0196
:1002700080931901ECCF81E080931801089582E00A
:1002800080931801089584E080931801ECCF809149
:100290001B0190911C0181309105B1F082309105D4
:1002A000D1F0892B51F080911B0190911C0181307C
:1002B0009105C1F00297D1F0089581E090E090930C
:1002C0001C0180931B01EFCF82E090E090931C0112
:1002D00080931B01E8CF81E090E090931C01809314
:1002E0001B01E1CF88E08093170108951092170158
:1002F00008958091180190911701892B85B908956F
:100300008FEF84B915B868EE73E080E090E00E944A
:10031000F4000E94790010921A01109219011092B3
:100320001C0110921B0102C0109216010E940501CF
:100330000E9447010E947901809116018823E1F310
:06034000F3CFF894FFCF9B
:10034600010000000000000200000000670000003D
:020356000000A5
:00000001FF
